:020000040800F2
:10000000480F002089010008B3120008D31100082E
:10001000B1120008AF0300084114000800000000FE
:10002000000000000000000000000000B7120008FF
:10003000F103000800000000B5120008B912000822
:10004000A3010008A3010008A3010008A301000800
:10005000A3010008A3010008A3010008A3010008F0
:10006000A3010008A3010008A3010008A3010008E0
:10007000A3010008A3010008A3010008A3010008D0
:10008000A3010008A3010008A3010008A3010008C0
:10009000A3010008A3010008A3010008A3010008B0
:1000A000A3010008A3010008A3010008A3010008A0
:1000B000A3010008A3010008A3010008A301000890
:1000C000A3010008A3010008A3010008A301000880
:1000D000A3010008A3010008A3010008A301000870
:1000E000A3010008A3010008A301000800F002F822
:1000F00000F03AF80AA090E8000C82448344AAF188
:100100000107DA4501D100F02FF8AFF2090EBAE885
:100110000F0013F0010F18BFFB1A43F0010318473B
:1001200090170000B0170000103A24BF78C878C1BB
:10013000FAD8520724BF30C830C144BF04680C60ED
:10014000704700000023002400250026103A28BF35
:1001500078C1FBD8520728BF30C148BF0B60704739
:100160001FB51FBD10B510BD00F0E8F81146FFF730
:10017000F7FF01F089F900F006F903B4FFF7F2FF89
:1001800003BC00F00DF9000009488047094800470A
:10019000FEE7FEE7FEE7FEE7FEE7FEE7FEE7FEE737
:1001A000FEE7FEE704480549054A064B7047000094
:1001B0000D130008ED00000848090020480F00203A
:1001C000480B0020480B0020B2F120030AD5C2F1F1
:1001D000200320FA02F001FA03F321FA02F140EAC7
:1001E0000300704721FA03F04FF00001704740EA26
:1001F000010310B59B070FD1042A0DD310C808C9FD
:10020000121F9C42F8D020BA19BA884201D90120A5
:1002100010BD4FF0FF3010BD1AB1D30703D0521CF0
:1002200007E0002010BD10F8013B11F8014B1B1B2B
:1002300007D110F8013B11F8014B1B1B01D1921E95
:10024000F1D1184610BD10B5431C02E010F8011B97
:1002500071B18107FAD14FF0013202C88C1A8C4378
:1002600014EAC211F9D0C01A0A0603D0C01E10BD8C
:10027000C01A10BD0A0401D0801E10BD0902FCD0B6
:10028000401E10BD10B5203AC0F00B80B1E81850E8
:10029000203AA0E81850B1E81850A0E81850BFF470
:1002A000F5AF5FEA027C24BFB1E81850A0E818500F
:1002B00044BF18C918C0BDE810405FEA827C24BF63
:1002C00051F8043B40F8043B08BF7047D20728BFF1
:1002D00031F8023B48BF11F8012B28BF20F8023B40
:1002E00048BF00F8012B70474FF0000200B51346DD
:1002F00094469646203922BFA0E80C50A0E80C5046
:10030000B1F12001BFF4F7AF090728BFA0E80C50F6
:1003100048BF0CC05DF804EB890028BF40F8042BEF
:1003200008BF704748BF20F8022B11F0804F18BF5C
:1003300000F8012B7047704770477047754600F012
:100340002BF8AE4605006946534620F00700854667
:1003500018B020B5FFF726FFBDE820404FF000069B
:100360004FF000074FF000084FF0000B21F007019D
:10037000AC46ACE8C009ACE8C009ACE8C009ACE8E0
:10038000C0098D46704710B50446AFF30080204683
:10039000BDE81040FFF7F1BE00487047E8080020B4
:1003A00001491820ABBEFEE7260002007047FEE7B9
:1003B00070B50C460546FFF746FF800701D00126C1
:1003C00000E000262846FFF73EFF06EB9000800085
:1003D00000220AE0D11702EB917121F003014B5981
:1003E000511AC900CB40A354521C8242F2DB70BDAB
:1003F0007047000006490020C8610648016941F0C5
:1004000004010161016941F0400101617047000090
:10041000C808002000200240064A0021D161064998
:100420000A6942F002020A614861086940F040002E
:1004300008617047C808002000200240044B0022D9
:10044000DA61044A136943F00103136101807047C4
:10045000C80800200020024014480022C168CB06D2
:10046000134904D5CA6942F00202CA611022C36866
:100470005B0705D5CB6943F00103CB6142F0040271
:10048000C369DB0707D0CB6943F00403CB61C169C3
:1004900021F00101C161A2F58071013901D0C26072
:1004A0007047C16921F00101C1617047002002401D
:1004B000C808002070B5054600F03AFA0646114C0F
:1004C00009E0681C07D025B100F032FA801BA84271
:1004D00001D9032070BDE068C007F2D1E068800652
:1004E00001D52020E060E068C00605D4E069C007BF
:1004F00002D1E068400703D5FFF7AEFF012070BDD1
:10050000002070BD0020024008C8521E08C192B2EF
:10051000FAD270472DE9F84316468846054600246E
:1005200000F0FCF8284600F02BF8074605EB8600A3
:1005300000F026F81149024600208F600860D01BA9
:10054000012202EB9020C86069460C4800F042F896
:1005500040B90DE058F8242000232946022000F07D
:100560009DF818B100F08AF8BDE8F883641C2D1DD1
:10057000B442EFDB00F088F80020F5E7B408002073
:100580000A4B10B500215A0403EB8124844207D999
:1005900002EB8124844203D8880200F1006010BD80
:1005A000491C8029F0DB002010BD00000004000879
:1005B00070B5044600F0BCF90546601C02D0044842
:1005C0000078044400F0B4F9401BA042FAD370BD97
:1005D000A40000202DE9F047054626480F460126D5
:1005E000017E01290FD00121814601762868DFF8BC
:1005F00088804CF25034022808D0A2462046FFF7EB
:1006000059FFA8B131E00220BDE8F0872046FFF78E
:1006100051FF08BB0120FFF7EDFE2046FFF74AFF20
:10062000D8F81010064621F00401C8F810101CE09C
:100630004FF0FF303860AC6811E02046FFF7ECFE69
:100640005046FFF737FFD8F81010060021F00201DE
:10065000C8F8101001D03C6007E004F58064D5E9CB
:10066000020100EB8120A042E7D8002189F8181090
:100670003046C9E7C8080020002002400148C06990
:1006800070470000C80800200348016941F080015C
:100690000161002070470000002002402DE9F05F5A
:1006A00007461C4888460024017E15461E4601293F
:1006B00009D00121814601764CF2503A5046FFF7AD
:1006C000F9FE18B122E00220BDE8F09F012F02D010
:1006D000022F00D00427D346DFF83CA02201284691
:1006E0003146FFF771FD81B208EB4400FFF7A6FE2B
:1006F0005846FFF7DFFEDAF8102022F00102CAF8B0
:10070000102018B9641CE4B2BC42E7D3002289F877
:100710001820D9E7C8080020002002400649002020
:100720000A69120607D5054A4A60054A4A600969FE
:10073000090600D5012070470020024023016745CB
:10074000AB89EFCD2DE9F84FDFF8B8910024A9F17E
:10075000040B23460F2709F1040AABF1040EC9E08C
:100760000125A5402A40AA427DD1674ED1F804C098
:10077000ACEB0608B44532D014DCBCF1030F3AD020
:1007800009DCBCF1000F2AD0BCF1010F1CD0BCF178
:10079000020F31D11DE0BCF1110F17D0BCF1120FC7
:1007A0002AD119E0B8F5881F19D006DCB8F5803FCA
:1007B00015D0B8F5801F1FD111E0B8F5001F0ED07D
:1007C000B8F5041F18D10AE0CB6815E0CB681B1DF3
:1007D00012E0CB6808330FE0CB680C330CE08B6879
:1007E0002BB1012B4FF0080303D0456104E0042333
:1007F00002E0056100E00023FF2A01D8064601E07F
:1008000000F104064FEA840501D9A5F12005D6F8C8
:10081000008007FA05FC28EA0C0803FA05F548EA07
:100820000508C6F800804D68ED0062D5374DAE6909
:1008300046F00106AE61AD6924F0030605F001053E
:100840000095334D06EB050CDCF80850A607360F73
:1008500007FA06F825EA0805DFF8B880404503D115
:100860004FF0000817E044E0DFF8AC80404502D1CB
:100870004FF001080FE0DFF8A480404502D14FF0AF
:10088000020808E0DFF89880404502D14FF00308E5
:1008900001E04FF0040808FA06F848EA0508CCF829
:1008A00008804D68D9F80060ED024D4601D5164329
:1008B00000E096432E604D68DAF80060AD025546C0
:1008C00001D5164300E096432E604D68DBF80060CA
:1008D000AD035D4601D5164300E096432E604D689A
:1008E000DEF80060ED03754601D5164300E096433F
:1008F0002E60641C0D682A46E5407FF431AFBDE8E8
:10090000F88F0000080401400000111000100240A0
:100910000000014000080140000C014000100140AF
:10092000001401400AB1016170470904FBE70000AF
:100930000148806870470000A400002002488168D8
:100940000278114481607047A4000020074810B568
:10095000016841F010010160032000F067F80F20EA
:1009600000F006F800F024F8002010BD002002403E
:1009700070B50D4D04464FF47A712878B1FBF0F054
:100980000A490968B1FBF0F000F0CEFA48B9102C22
:1009900007D200222146501E00F028F800206C608B
:1009A00070BD012070BD0000A4000020B000002038
:1009B0000C4808B5816941F001018161816901F04C
:1009C00001010091C16941F08051C161C06900F02D
:1009D000805000900448416821F0E06141F00071CE
:1009E000416008BD0010024000000140F0B40E4B11
:1009F0001B680C46C3F30223C3F10705042D00D97D
:100A00000425191D072901D2002300E0DB1E012661
:100A100006FA05F1491E214099409E40761E164077
:100A20003143F0BC00F00DBD0CED00E0064900F0D4
:100A3000070208684FF6FF03184040EA0220034A05
:100A400010430860704700000CED00E00000FA055C
:100A50002DE9F0470F46050061D0434E306800F0A5
:100A60000700B84209D2306820F0070038433060F0
:100A7000306800F00700B84251D128683B4C81072C
:100A800012D5400703D5606840F4E06060602878C4
:100A9000000703D5606840F4605060606068A96832
:100AA00020F0F000084360602878C00728D068680C
:100AB000012810D02168022810D0890700292EDAD9
:100AC000616821F0030101436160FFF731FF804657
:100AD00041F288390DE021688903EFE78901EDE7EC
:100AE000FFF726FFA0EB0801494502D90320BDE826
:100AF000F0876068696800F00C00B0EB810FEFD1FF
:100B0000306800F00700B8420BD9306820F00700C9
:100B100038433060306800F00700B84201D001204F
:100B2000E5E72878400705D56068E96820F4E060CB
:100B3000084360602878000706D56068296920F4BA
:100B4000605040EAC100606000F038F86168084A0F
:100B5000C1F30311515CC8400649086006480068AB
:100B6000FFF706FF0020C2E700200240001002400D
:100B700096180008B0000020A8000020044805498D
:100B800000684968044AC1F30221515CC8407047BB
:100B9000B000002000100240A618000804480549D3
:100BA00000684968044AC1F3C221515CC8407047DB
:100BB000B000002000100240A61800080E4A51683C
:100BC0000E4801F00C03042B11D0082B0FD10C4858
:100BD000C1F38343C903C05C0AD55168084AC1F315
:100BE0004041921E515C054A5043B0FBF1F0704702
:100BF00004494843704700000010024000127A0088
:100C00008618000800093D002DE9F84F040070D057
:100C10002078C04DC00749D06868C0F38100012822
:100C200007D06868C0F38100022809D16868C00352
:100C300006D52868800339D560680028E7D035E0FC
:100C40006068B0F5803F0BD010B1B0F5A02F11D087
:100C5000286820F480302860286820F4802002E092
:100C6000286840F480302860606890B1FFF760FE2B
:100C700006460AE0286840F480202860F0E700BFBC
:100C8000FFF756FE801B642873D828688003F7D5C9
:100C90000CE0FFF74DFE064605E000BFFFF748FEFB
:100CA000801B6428F0D828688003F7D420789A4EF7
:100CB00080074FF001094FF0000839D5686810F03F
:100CC0000C0F07D06868C0F38100022809D168685A
:100CD000C00306D42868800714D52069012808D1EC
:100CE00010E02069B0B1C6F80090FFF721FE07467A
:100CF00005E00AE1FFF71CFEC01B0228C4D82868E3
:100D00008007F7D52868616920F0F80040EAC10043
:100D100028600DE0C6F80080FFF70AFE074604E0F1
:100D2000FFF706FEC01B022823D828688007F7D4E7
:100D3000207800072CD57948A169D9B1C0F8009076
:100D4000FFF7F6FD074604E0FFF7F2FDC01B02289F
:100D50000FD8686A8007F7D571484FF4FA510068D8
:100D6000B0FBF1F0009000BF0098411E0091FAD254
:100D70000EE080E0C0F80080FFF7DAFD074604E0EF
:100D8000FFF7D6FDC01B022875D8686A8007F7D424
:100D90002078400760D5E8690027C00008D4E869DA
:100DA00040F08050E861E869012700F08050009031
:100DB0005C480168C90513D40168834641F4807119
:100DC0000160FFF7B5FD824606E000BFFFF7B0FD0A
:100DD000A0EB0A0064284ED8DBF80000C005F5D56A
:100DE000E06801280AD008B1052813D0286A20F04D
:100DF00001002862286A20F0040002E0286A40F01E
:100E000001002862E06841F2883B98B1FFF790FD4D
:100E100082460BE0286A40F004002862EEE700BF3B
:100E2000FFF786FDA0EB0A0159455AD8286A8007CA
:100E3000F6D50CE0FFF77CFD824605E0FFF778FD74
:100E4000A0EB0A0159454CD8286A8007F6D41FB197
:100E5000E86920F08050E861E06988B36968C1F30F
:100E60008101022944D00228C6F8608004D0FFF72F
:100E70005FFD044638E034E0FFF75AFD074604E022
:100E8000FFF756FDC01B02282BD828688001F7D435
:100E9000206AB0F5803F05D16868A16820F4003071
:100EA00008436860D4E908010843696821F47411B3
:100EB00008436860C6F86090FFF73AFD044606E014
:100EC00025E000BFFFF734FD001B022809D8286881
:100ED0008001F7D51BE000BFFFF72AFD001B0228A9
:100EE00002D90320BDE8F88F28688001F4D40EE011
:100EF0000128F7D06868226A00F48031914204D159
:100F0000616A00F47010884201D00120EAE70020F5
:100F1000E8E7000000100240000042428004424224
:100F2000B00000200070004010B5401EB0F1807F7E
:100F300001D3012010BD4FF0E02460610F21601744
:100F400000F07FFA0020A06107202061002010BD82
:100F500070B5040004D094F84100002510B106E0FB
:100F6000012070BD84F84050204600F023F8242072
:100F700084F841002068C16821F40051C160204616
:100F800000F0C6F92068016921F4904101612068F0
:100F9000416921F02A0141612068C16841F4005192
:100FA000C1606564202084F8410084F842006563D4
:100FB000002070BD30B585B00024009401940294E7
:100FC00003942C4D03682C4802210322AB4222D10A
:100FD000C36943F40033C361C36903F4003304936A
:100FE000836943F0040383618069244D00F00400A9
:100FF00004900420CDE90001039269462846FFF7DA
:10100000A1FB0820CDE90004694628460294FFF7B9
:1010100099FB05B030BD1A4DAB42FAD1C36943F418
:101020008023C361C36903F480230493836943F07D
:10103000100383618069039200F01000049028156A
:10104000CDE900010F4D69462846FFF77BFBE81408
:10105000CDE90004694628460294FFF773FB0A486D
:10106000416821F0300141F0E06141F01001416040
:10107000CFE700000044004000100240000801409B
:101080000048004000100140000001402DE9F843F5
:10109000044690F84200994616460D46202802D094
:1010A0000220BDE8F883ADB1A6B100206064222122
:1010B00084F842102063FFF73BFCA6858046E68556
:1010C000A0684FF48057B84201D1206920B12E4664
:1010D000002526E00120E4E7002622E04346002226
:1010E00020212046CDF8009000F06EF908B10320D1
:1010F000D7E726B1A068B8421BD038B108E0206815
:101100004068C0F3080025F8020B07E0206980B1B1
:101110002068406800F07F0006F8010BE08D401E5B
:10112000E085E08D0028D9D1202084F842000020FD
:10113000B7E720684068EFE72DE9F843044690F8E8
:1011400041001F4616460D46202802D00220BDE869
:10115000F8837DB176B100206064212084F84100DD
:10116000FFF7E6FBA6848046E684A068B0F5805FC2
:1011700002D003E00120EAE7206910B12E460025E5
:101180000EE000260CE08021204600F01DF9A0B9F9
:10119000AEB116F8010B21684860E08C401EE08477
:1011A000E08C43464FF0000200970028EBD14FF04F
:1011B0004001204600F008F930B10320C7E735F8B8
:1011C000020BC0F30800E6E7202084F8410000206D
:1011D000BDE7FEE72DE9F04786B0002430480094D3
:1011E000019402940394816941F020018161816935
:1011F00001F020010491816941F00401816181695C
:1012000001F004010491816941F008018161816963
:1012100001F008010491816941F010018161806948
:10122000DFF8808000F01000049000227B2140460F
:10123000FFF778FBDFF870900022C0214846FFF7E7
:1012400071FBDFF868A04FF4004700223946504692
:10125000FFF768FB7B2001250226CDE90005CDE9DB
:10126000024669464046FFF76DFA28038DE83100D3
:1012700069464046FFF766FAC020CDE90005CDE992
:10128000024669464846FFF75DFA00970396CDE9A6
:10129000015469465046FFF755FA06B0BDE8F0879D
:1012A00000100240000C0140001001400008014005
:1012B000FEE7FEE770477047FFF740BB10B590B000
:1012C00028216846FFF710F814210AA8FFF70CF848
:1012D0000220009001200490102000240590079423
:1012E0006846FFF791FC08B172B6FEE70F20CDE922
:1012F0000A040C940D9400210AA80E94FFF7A8FB91
:10130000002801D072B6FEE710B010BD7047000093
:1013100070B5044600680169E26821F44051114348
:1013200001612169A0680843616908432168CA68AE
:1013300041F20C639A430243CA6020684169A26982
:1013400021F44071114341611E492068884202D155
:10135000FFF724FC01E0FFF711FC00EBC00101EBFB
:101360000012606864218000B2FBF0F3B3FBF1F37C
:101370006FF018067343B2FBF0F5B2FBF0F605EB25
:101380008305322303EB0515B5FBF1F5B6FBF1F64A
:1013900005F0F00505EB0615B2FBF0F6B2FBF0F038
:1013A000B0FBF1F06FF01802504306EB800003EB46
:1013B0000010B0FBF1F0216800F00F0028448860B5
:1013C00070BD0000003801402DE9F04198461746F5
:1013D0000E460446069D27E0681C25D02DB1FFF778
:1013E000A7FAA0EB0800A8421ED920680C3050E8EC
:1013F000001F21F4D07140E80012002AF5D12068C6
:10140000143050E8001F21F0010140E80012002ACA
:10141000F5D1202084F8410084F84200002084F8AF
:1014200040000320BDE8F0812068006836EA000033
:1014300004D00020B842CFD00020F3E70120F9E724
:10144000FEE70907090E002804DB00F1E02080F820
:101450000014704700F00F0000F1E02080F8141D28
:1014600070470000074B30B4002103F2AC525C5CC3
:101470001454401C491C3929F9DB30BCC8210148EF
:10148000FEF732BF0C020020A8B0FFF75FFAFFF7AB
:1014900015FFFFF79FFEBB48B9494FF4E136002521
:1014A0000160C0E901650C24C560C0E90454856190
:1014B000C561FFF74DFD08B172B6FEE7B148B2490C
:1014C00048380160C0E90165C560C0E90454856120
:1014D000C561FFF73DFD08B172B6FEE70122D103F9
:1014E000AA48FFF71FFA4FF4C870FFF761F801220E
:1014F0002021A748FFF716FA41F28830FFF758F885
:101500002022A4A113A8FEF7BDFE00274FF47A7491
:10151000661023461E2213A99A48FFF70DFE99492B
:101520002346C82248319748FFF7B0FD3046FFF701
:101530003FF87F1C012FECDD9EA30DF16C0C0FCB4F
:101540008CE80F00002723460F221BA98D48FFF7C8
:10155000F3FD8C492346C82248318A48FFF796FD9F
:101560003046FFF725F87F1C042FECDD282295A1DB
:101570006846FEF787FE2346252269468148FFF725
:10158000DBFD80492346C82248317E48FFF77EFDB7
:101590003046FFF70DF895A30DF17C0C0FCB8CE8CE
:1015A0000F0023460E221FA97648FFF7C5FD754997
:1015B0002346C82248317348FFF768FD3046FEF7DE
:1015C000F7FF8EA30DF18C0C0FCB8CE80F000027DA
:1015D00023460F2223A96B48FFF7AEFD6949234636
:1015E000C82248316748FFF751FD3046FEF7E0FF5B
:1015F0007F1C042FECDD242284A10AA8FEF742FE02
:101600000027234623220AA95E48FFF795FD5D497E
:101610002346C82248315B48FFF738FD3046FEF7C5
:10162000C7FF7F1C042FECDDA046814C8149474653
:1016300043463B22A1F5AC70FFF728FD10227EA1A6
:101640007C48FEF7D4FD38BB79493B463522091D5D
:101650004C48FFF771FD3046FEF7AAFF3B463922A2
:1016600074494848FFF768FD3046FEF7A1FF3B4646
:10167000012276A14348FFF75FFD3046FEF798FF51
:101680003B46012271A13F48FFF756FD2068FFF756
:10169000E9FE20683930206010226DA16548FEF710
:1016A000A6FD38BB62493B46352239313548FFF744
:1016B00043FD3046FEF77CFF3B4639225D49314809
:1016C000FFF73AFD3046FEF773FF3B4601225FA16C
:1016D0002C48FFF731FD3046FEF76AFF3B460122FA
:1016E0005AA12848FFF728FD2068FFF7BBFE2068B5
:1016F0003930206010225BA14E48FEF778FD08B11A
:10170000206827E04A493B4635226E311D48FFF7E5
:1017100013FD3046FEF74CFF3B4639224549194838
:10172000FFF70AFD3046FEF743FF3B46012247A183
:101730001448FFF701FD3046FEF73AFF3B46012211
:1017400042A11048FFF7F8FC2068FFF78BFE2068E5
:1017500039302060E4287FF469AF484F3F22464982
:101760003846FEF7D7FE3F2245493846FEF7CCFE05
:1017700030494348C831FEF71BFE256056E700009C
:1017800000480040FC0000200044004000080140E8
:10179000000C014041542B514D544346473D2272A9
:1017A0006563762F6D6F6465222C302C302C310DE3
:1017B0000A00000041542B514D544F50454E3D3FBF
:1017C0000D0A000041542B514D544F50454E3D30B1
:1017D0002C223231302E38362E3233392E323430FC
:1017E000222C383038300D0A0000000041542B51B3
:1017F0004D544F50454E3F0D0A00000041542B51AF
:101800004D54434F4E4E3D3F0D0A000041542B5165
:101810004D54434F4E4E3D302C226E68616E6875BC
:101820006E67313233222C22222C22220D0A000034
:10183000000000200C0200207B226964223A202252
:101840006465766963653162000000001A0000007B
:101850007B226964223A202264657669636532627C
:10186000000000007B226964223A202264657669C8
:101870006365336200000000B807002010480008CC
:10188000D0030020010202030405060708090A0B21
:101890000C0D0E0F101000000000000000000102EF
:1018A0000304060708090000000001020304000009
:1018B000D018000800000020B40000002801000833
:1018C00084190008B4000020940E000044010008B0
:1018D0000000000041542B514D5450554245583D95
:1018E000302C302C302C302C226E68616E68756E76
:1018F000672F67617465776179322F73656E736FD7
:101900007231222C35370D0A0041542B514D545061
:10191000554245583D302C302C302C302C226E68EE
:10192000616E68756E672F67617465776179322FB4
:1019300073656E736F7232222C35370D0A00415475
:101940002B514D5450554245583D302C302C302CA5
:10195000302C226E68616E68756E672F67617465E2
:10196000776179322F73656E736F7233222C35373E
:101970000D0A00000100000010000000000000003F
:041980000024F4004B
:04000005080000ED02
:00000001FF
